:100000000C9434000C9451000C9451000C94510049
:100010000C9451000C9451000C9451000C9451001C
:100020000C9451000C9451000C9451000C9451000C
:100030000C9451000C9451000C9451000C945100FC
:100040000C9453000C9451000C9451000C945100EA
:100050000C9451000C9451000C9451000C945100DC
:100060000C9451000C94510011241FBECFEFD8E026
:10007000DEBFCDBF11E0A0E0B1E0E4ECF3E002C0F0
:1000800005900D92AA30B107D9F721E0AAE0B1E0BE
:1000900001C01D92A131B207E1F70E9440010C940A
:1000A000E0010C9400001F920F920FB60F921124E2
:1000B0008F931D9B04C081E080930C0102C01092BD
:1000C0000C011D9B04C081E080930B0102C01092C3
:1000D0000B011D9B04C081E080930A0102C01092B5
:1000E0000A018F910F900FBE0F901F90189521E07D
:1000F00030E001C0220F8A95EAF7B22FB095A22F07
:10010000E0E0F0E081E090E03BB13B233BB97BB124
:100110009C010E2E02C0220F331F0A94E2F7242303
:1001200035230E2E02C0359527950A94E2F7062E48
:1001300001C0220F0A94EAF7722B7BB93BB13A2B2C
:100140003BB93BB1209523232BB93196E830F1051B
:10015000D9F6089594EA9093BC009091BC0097FF63
:10016000FCCF8093BB0084E88093BC008091BC00EE
:1001700087FFFCCF6093BB0084E88093BC00809134
:10018000BC0087FFFCCF84E98093BC00089594EA0B
:100190009093BC009091BC0097FFFCCF816080934E
:1001A000BB0084E88093BC008091BC0087FFFCCF3B
:1001B00080EC8093BC008091BB0094E99093BC00DC
:1001C00008951092B9008CE08093B80084E0809389
:1001D000BC00089584EA8093BC008091BC0087FF36
:1001E000FCCF089584E98093BC0008958093BB0000
:1001F00084E88093BC008091BC0087FFFCCF089509
:1002000084EC8093BC008091BC0087FFFCCF809180
:10021000BB00089584E88093BC008091BC0087FFF8
:10022000FCCF8091BB0008958091B900887F08952C
:1002300084B584BD089595B595BD24B5982F907269
:10024000922B8074880F892B84BD089525B5982F33
:100250009072922B8074880F892B85BD0895EEE6ED
:10026000F0E02081982F9072922B8074880F892B58
:100270008083089587BD089588BD089586B5089543
:10028000CF93DF93CDB7DEB72B970FB6F894DEBFD1
:100290000FBECDBF8FEF8AB987B98AE0E0E0F1E009
:1002A000DE01119601900D928A95E1F70E94E1001E
:1002B0000E94EA0080ED0E94F60080E00E94F600B5
:1002C00080E00E94F6000E94EA0080ED0E94F600A5
:1002D00087E00E94F60083E00E94F6000E94F20090
:1002E00080E00E941B0180E60E94260180E20E94BD
:1002F0002F010E94EA0080ED0E94F60081E00E943A
:10030000F6000E94EA0081ED0E94F6000E940001C2
:10031000182F0E940A018B870E94F200912F9F7074
:1003200090931001107810930F018B85982F9F7078
:1003300090930E01807180930D015A9880910E0167
:10034000E1E0F0E0EC0FFD1FE80FF11D408150E00F
:1003500063E070E084E090E00E94770080910D01FE
:10036000E1E0F0E0EC0FFD1FE80FF11D408150E0EF
:1003700063E070E084E090E00E94770080911001DB
:10038000E1E0F0E0EC0FFD1FE80FF11D408150E0CF
:1003900063E070E084E090E00E94770080910F01BC
:1003A000E1E0F0E0EC0FFD1FE80FF11D408150E0AF
:1003B00063E070E084E090E00E9477005A9A99CF61
:0403C000F894FFCFDF
:0A03C400FC60DAF266B63EE0FEE6E9
:00000001FF
