:100000000C9434000C9449000C9449000C94490061
:100010000C9449000C9449000C9449000C9449003C
:100020000C9449000C9449000C9449000C9449002C
:100030000C9449000C9449000C9449000C9449001C
:100040000C9449000C9449000C9449000C9449000C
:100050000C9449000C9449000C9449000C944900FC
:100060000C9449000C94490011241FBECFEFD8E036
:10007000DEBFCDBF11E0A0E0B1E0E2EBF4E002C0F2
:1000800005900D92A431B107D9F70E94A6000C94F7
:1000900057020C94000018B817B880917C00809328
:1000A0007C0080917C00806280937C0080917A004B
:1000B000846C80937A0080917A0086FDFCCF08954D
:1000C00080E180937C0080917A00806480937A0044
:1000D00080917A0086FDFCCF809178002091790094
:1000E00090E0922B089521E030E001C0220F8A9524
:1000F000EAF7B22FB095A22FE0E0F0E081E090E0C7
:100100003BB13B233BB97BB19C010E2E02C0220FB9
:10011000331F0A94E2F7242335230E2E02C03595AF
:1001200027950A94E2F7062E01C0220F0A94EAF7F7
:10013000722B7BB93BB13A2B3BB93BB120952323C2
:100140002BB93196E830F105D9F60895CF93DF93B6
:10015000CDB7DEB764970FB6F894DEBF0FBECDBF44
:100160000E944B008FEF8AB984E1E0E0F1E0DE010C
:10017000119601900D928A95E1F70AE010E00E9435
:100180006000BC0180E090E00E94660120E030E069
:1001900040E85AE30E94CC0120E030E040EA50E41D
:1001A0000E94CC016B017C015A9820E030E040E2D3
:1001B00051E40E94CC010E943501CB01B8010E949C
:1001C0000D01880F991F21E030E02C0F3D1F820F99
:1001D000931FFC014081518163E070E084E090E076
:1001E0000E947300C701B6010E943501CB01B8011E
:1001F0000E940D01880F991F21E030E02C0F3D1F58
:10020000820F931FFC014081518163E070E084E024
:1002100090E00E9473005A9AB2CF97FB072E16F413
:10022000009407D077FD09D00E94210107FC05D07A
:100230003EF4909581959F4F0895709561957F4FFD
:100240000895AA1BBB1B51E107C0AA1FBB1FA6171D
:10025000B70710F0A61BB70B881F991F5A95A9F76F
:1002600080959095BC01CD01089504D06894B1119A
:100270008DC0089570D088F09F5790F0B92F9927BE
:10028000B751A0F0D1F0660F771F881F991F1AF0A1
:10029000BA95C9F712C0B13081F077D0B1E00895B6
:1002A00074C0672F782F8827B85F39F0B93FCCF337
:1002B000869577956795B395D9F73EF49095809597
:1002C000709561957F4F8F4F9F4F0895E89409C0B7
:1002D00097FB3EF490958095709561957F4F8F4F79
:1002E0009F4F9923A9F0F92F96E9BB279395F6958F
:1002F000879577956795B795F111F8CFFAF4BB0F0D
:1003000011F460FF1BC06F5F7F4F8F4F9F4F16C070
:10031000882311F096E911C0772321F09EE8872FFA
:10032000762F05C0662371F096E8862F70E060E0B6
:100330002AF09A95660F771F881FDAF7880F96952F
:10034000879597F9089557FD9058440F551F59F018
:100350005F3F71F04795880F97FB991F61F09F3FB2
:1003600079F087950895121613061406551FF2CFDB
:100370004695F1DF08C0161617061806991FF1CF2B
:1003800086957105610508940895E894BB27662752
:100390007727CB0197F908950BD078C069D028F062
:1003A0006ED018F0952309F05AC05FC01124EECF2B
:1003B000CADFA0F3959FD1F3950F50E0551F629FC0
:1003C000F001729FBB27F00DB11D639FAA27F00DAE
:1003D000B11DAA1F649F6627B00DA11D661F829FD5
:1003E0002227B00DA11D621F739FB00DA11D621FBA
:1003F000839FA00D611D221F749F3327A00D611DD7
:10040000231F849F600D211D822F762F6A2F1124B8
:100410009F5750408AF0E1F088234AF0EE0FFF1F0B
:10042000BB1F661F771F881F91505040A9F79E3F42
:10043000510570F014C0AACF5F3FECF3983EDCF397
:10044000869577956795B795F795E7959F5FC1F77F
:10045000FE2B880F911D9695879597F9089597F92A
:100460009F6780E870E060E008959FEF80EC08955A
:1004700000240A9416161706180609060895002483
:100480000A9412161306140605060895092E0394FD
:10049000000C11F4882352F0BB0F40F4BF2B11F471
:1004A00060FF04C06F5F7F4F8F4F9F4F0895F89498
:0204B000FFCF7C
:1004B200FC006000DA00F2006600B6003E00E000D8
:0404C200FE00E60052
:00000001FF
