:100000000C9434000C9451000C9451000C94510049
:100010000C9451000C9451000C9451000C9451001C
:100020000C9451000C9451000C9451000C9451000C
:100030000C9451000C9451000C9451000C945100FC
:100040000C9473010C9451000C9451000C945100C9
:100050000C9451000C9451000C9451000C945100DC
:100060000C9451000C94510011241FBECFEFD8E026
:10007000DEBFCDBF11E0A0E0B1E0EAEBF4E002C0EA
:1000800005900D92AA30B107D9F721E0AAE0B1E0BE
:1000900001C01D92A631B207E1F70E9453000C94F3
:1000A0005B020C940000CF93DF93CDB7DEB72A97A5
:1000B0000FB6F894DEBF0FBECDBF83ED90E301977E
:1000C000F1F700C000008FEF8AB98AE0E0E0F1E0CC
:1000D000DE01119601900D928A95E1F70E94E101EF
:1000E0000E940A0284B584BD85B5836085BD809178
:1000F0006E00816080936E007894F89481E00E9495
:100100003C028093130182E00E943C028093120122
:10011000789480911301282F2F70209311018077FC
:1001200090E034E0959587953A95E1F7809310013A
:1001300080911201982F9F7090930F01807390E02F
:1001400044E0959587954A95E1F780930E01E1E0AB
:10015000F0E0EC0FFD1FE20FF11DC0805BE2E52E29
:10016000F12C03E02BE230E044E06BE270E082E04F
:100170000E948F0180911001E1E0F0E0EC0FFD1F83
:10018000E80FF11DC0802BE230E044E06BE270E04C
:1001900082E00E948F0180910F01E1E0F0E0EC0F1E
:1001A000FD1FE80FF11DC0802BE230E044E06BE260
:1001B00070E082E00E948F0180910E01E1E0F0E0AA
:1001C000EC0FFD1FE80FF11DC0802BE230E044E092
:1001D0006BE270E082E00E948F018091150188231C
:1001E00051F080910D01811106C081E080930C01D6
:1001F00080930D0109C080911501811105C0809186
:100200000D01811110920D0180911401882351F08C
:1002100080910B01811106C081E080930A018093D7
:100220000B0109C080911401811105C080910B015F
:10023000811110920B0180910C01882349F180916A
:100240000F018F5F80930F01843039F480910E018C
:10025000823071F410920E0109C08A3049F4809105
:100260000E01823028F48F5F80930E0110920F01EF
:10027000F89480910E0120E1829FC00111246091C9
:100280000F01682B82E00E942202789410920C01E8
:1002900080910A01882309F430CF809111018F5F8A
:1002A000809311018A3071F480911001853019F426
:1002B0001092100105C0863028F48F5F80931001E2
:1002C00010921101F8948091100120E1829FC001E9
:1002D000112460911101682B81E00E942202789420
:1002E00010920A010ACF1F920F920FB60F9211249B
:1002F0008F93199B04C081E08093150102C0109276
:1003000015011A9B04C081E08093140102C0109271
:1003100014018F910F900FBE0F901F901895CF92E0
:10032000DF92EF92FF920F931F93CF93DF93DB0146
:10033000E901F701508121E030E0B90102C0660F08
:10034000771F0A95E2F78B01962F9095952390835E
:10035000F90102C0EE0FFF1F8A95E2F75E2F50955C
:100360009E2F20E030E0D12C8C9185238C938881C6
:10037000F601022E02C0F595E7950A94E2F7E170C6
:10038000FF27042E01C0EE0F0A94EAF78E2B888314
:100390008C91892B8C938881E095E823E8832F5FEB
:1003A0003F4F2830310501F7F7018081802B808392
:1003B000DF91CF911F910F91FF90EF90DF90CF9041
:1003C00008951092B9008CE08093B80084E0809387
:1003D000BC00089584EA8093BC008091BC0087FF34
:1003E000FCCF089584E98093BC0008958093BB00FE
:1003F00084E88093BC008091BC0087FFFCCF089507
:1004000084E88093BC008091BC0087FFFCCF809182
:10041000BB0008950E94EA0180ED0E94F60180E091
:100420000E94F60180E00E94F6010E94EA0180ED40
:100430000E94F60187E00E94F60183E00E94F60127
:100440000C94F2011F93CF93DF931F92CDB7DEB7C9
:10045000182F69830E94EA0180ED0E94F601812F26
:100460000E94F6016981862F0E94F6010F90DF91AC
:10047000CF911F910C94F2011F93CF93DF931F92A2
:10048000CDB7DEB7182F0E94EA0180ED0E94F60179
:10049000812F0E94F6010E94EA0181ED0E94F6017F
:1004A0000E94000289830E94F20189810F90DF91EE
:0A04B000CF911F910895F894FFCF3B
:0A04BA00FC60DAF266B63EE0FEE6F2
:00000001FF
