:100000000C9434000C9451000C9451000C94510049
:100010000C9451000C9451000C9451000C9451001C
:100020000C9451000C9451000C9451000C9451000C
:100030000C9451000C9451000C9451000C945100FC
:100040000C9453000C9451000C9451000C945100EA
:100050000C9451000C9451000C9451000C945100DC
:100060000C9451000C94510011241FBECFEFD8E026
:10007000DEBFCDBF11E0A0E0B1E0EAE1F5E002C0F3
:1000800005900D92AA30B107D9F721E0AAE0B1E0BE
:1000900001C01D92A631B207E1F70E9439010C940C
:1000A0008B020C9400001F920F920FB60F92112436
:1000B0008F93199B04C081E080930B0102C01092C2
:1000C0000B011A9B04C081E080930A0102C01092C8
:1000D0000A018F910F900FBE0F901F90189521E08D
:1000E00030E001C0220F8A95EAF7B22FB095A22F17
:1000F000E0E0F0E081E090E03BB13B233BB97BB135
:100100009C010E2E02C0220F331F0A94E2F7242313
:1001100035230E2E02C0359527950A94E2F7062E58
:1001200001C0220F0A94EAF7722B7BB93BB13A2B3C
:100130003BB93BB1209523232BB93196E830F1052B
:10014000D9F60895089594EA9093BC009091BC006C
:1001500097FFFCCF8093BB0084E88093BC00809124
:10016000BC0087FFFCCF6093BB0084E88093BC0099
:100170008091BC0087FFFCCF84E98093BC00089588
:1001800094EA9093BC009091BC0097FFFCCF8160F3
:100190008093BB0084E88093BC008091BC0087FF03
:1001A000FCCF80EC8093BC008091BB0094E99093DD
:1001B000BC0008951092B9008CE08093B80084E0F0
:1001C0008093BC00089584EA8093BC008091BC00B9
:1001D00087FFFCCF089584E98093BC000895809345
:1001E000BB0084E88093BC008091BC0087FFFCCFFB
:1001F000089584EC8093BC008091BC0087FFFCCF05
:100200008091BB00089584E88093BC008091BC007D
:1002100087FFFCCF8091BB0008958091B900887F53
:10022000089584B584BD089595B595BD24B5982FDE
:100230009072922B8074880F892B84BD089525B508
:10024000982F9072922B8074880F892B85BD08950A
:10025000EEE6F0E02081982F9072922B8074880F48
:10026000892B8083089587BD089588BD089586B53C
:100270000895CF93DF93CDB7DEB72A970FB6F894E2
:10028000DEBF0FBECDBF83ED90E30197F1F700C055
:1002900000008FEF8AB987B98AE0E0E0F1E0DE0183
:1002A000119601900D928A95E1F70E94DA000E9462
:1002B000E30080ED0E94EF0080E00E94EF0080E00C
:1002C0000E94EF000E94E30080ED0E94EF0087E0B3
:1002D0000E94EF0083E00E94EF000E94EB0084B5D3
:1002E00084BD85B5836085BD80916E0081608093FB
:1002F0006E007894F8940E94E30080ED0E94EF0075
:1003000081E00E94EF000E94E30081ED0E94EF0077
:100310000E94F900809315010E940301809314014B
:100320000E94EB00789480911501982F9F70909314
:100330001301807790E024E0959587952A95E1F761
:100340008093120180911401982F9F709093110156
:10035000807390E034E0959587953A95E1F7809326
:1003600010015B9880911301E1E0F0E0EC0FFD1FBC
:10037000E80FF11D408150E064E070E082E090E021
:100380000E946F0080911201E1E0F0E0EC0FFD1F90
:10039000E80FF11D408150E064E070E082E090E001
:1003A0000E946F0080911101E1E0F0E0EC0FFD1F71
:1003B000E80FF11D408150E064E070E082E090E0E1
:1003C0000E946F0080911001E1E0F0E0EC0FFD1F52
:1003D000E80FF11D408150E064E070E082E090E0C1
:1003E0000E946F005B9A80910B01882351F08091ED
:1003F0000F01811106C081E080930E0180930F01EF
:1004000009C080910B01811105C080910F018111FC
:1004100010920F0180910A01882351F080910D0103
:10042000811106C081E080930C0180930D0109C009
:1004300080910A01811105C080910D0181111092F6
:100440000D0180910E01882391F1809111018F5F40
:1004500080931101843039F480911001823071F45D
:100460001092100109C08A3049F480911001823045
:1004700028F48F5F8093100110921101F8940E946C
:10048000E30080ED0E94EF0082E00E94EF00809187
:10049000100120E1829FC001112490911101892B4C
:1004A0000E94EF000E94EB00789410920E01809160
:1004B0000C01882309F41ECF809113018F5F809374
:1004C00013018A3071F480911201853019F4109271
:1004D000120105C0863028F48F5F809312011092BC
:1004E0001301F8940E94E30080ED0E94EF0081E088
:1004F0000E94EF008091120120E1829FC00111242F
:1005000090911301892B0E94EF000E94EB007894D8
:0A05100010920C01EFCEF894FFCF1B
:0A051A00FC60DAF266B63EE0FEE691
:00000001FF
