:100000000C9434000C943E000C943E000C943E0082
:100010000C943E000C943E000C943E000C943E0068
:100020000C943E000C943E000C943E000C94400056
:100030000C943E000C943E000C943E000C943E0048
:100040000C943E000C943E000C943E000C943E0038
:100050000C943E000C943E000C943E000C943E0028
:100060000C943E000C943E0011241FBECFEFD8E04C
:10007000DEBFCDBF0E9452000C946D000C940000B6
:100080001F920F920FB60F9211248F939F938BB1F3
:1000900091E089278BB99F918F910F900FBE0F90A0
:1000A0001F901895F8948091810082608093810060
:1000B00088E09DE39093890080938800809181007F
:1000C00088608093810080916F00826080936F00D0
:0E00D00078948AB18FEF8AB9FFCFF894FFCFF2
:00000001FF
