:100000000EC015C014C013C012C011C010C00FC064
:100010000EC00DC00CC00BC00AC009C008C011241E
:100020001FBECFE5D1E0DEBFCDBF02D064C0E8CFB8
:1000300080E886BD16BC8AB583608ABD83B78860B8
:1000400083BFB99AC1988AB580628ABD80E189BDB3
:1000500080E090E03AE045E056B326B3207153FFCC
:100060001DC0911120C038BD93B7916093BF5FEF61
:1000700060E792E0515060409040E1F700C000001E
:1000800093B79E7F93BF5FEF60E792E0515060406F
:100090009040E1F700C00000C19805C0992321F00D
:1000A000C19890E001C091E021111FC0882311F098
:1000B00081E0D2CF48BD83B7816083BF2FEF50E787
:1000C00062E0215050406040E1F700C0000083B77B
:1000D0008E7F83BF8FEF20E752E081502040504059
:1000E000E1F700C00000C198E3CF882309F4B4CF42
:0A00F000C19880E0B1CFF894FFCF73
:00000001FF
