:100000000C9434000C9446000C9446000C94E700C9
:100010000C9446000C9446000C9446000C94460048
:100020000C9446000C9446000C9446000C94460038
:100030000C9446000C9446000C9446000C94460028
:100040000C9446000C9446000C9446000C94460018
:100050000C9446000C9446000C9446000C94460008
:100060000C9446000C94460011241FBECFEFD8E03C
:10007000DEBFCDBF21E0A0E0B1E001C01D92A13004
:10008000B207E1F70E9495010C94B2010C940000B4
:1000900018B817B880917C0080937C0080917C0018
:1000A000806280937C0080917A00846C80937A00D7
:1000B00080917A0086FDFCCF0895805F80937C005C
:1000C00080917A00806480937A0080917A0086FD26
:1000D000FCCF809178002091790090E06111922B03
:1000E000089584B1837C84B984B18C6284B981E53C
:1000F0008CBD81E08DBD0895262FFB013E2F321B64
:10010000341750F4DC013D91CD013EBD0DB407FE26
:10011000FDCF3EB53193F2CF0895282FFC018E2FED
:10012000821B861730F481918EBD0DB407FEFDCF82
:10013000F6CF08958EBD0DB407FEFDCF8EB50895A0
:1001400084B1836084B92898299A2698E8E6F0E07B
:10015000808181608083EBE6F0E080818064808331
:100160000C9471008BB194E089278BB980910001C8
:10017000811107C029988FEF0E949A00299A8074F4
:10018000089580E00895CF93DF931F92CDB7DEB737
:1001900029988F71806269830E949A006981862FF5
:1001A0000E949A00299A0F90DF91CF91089562E002
:1001B00085E00E94C30060E181E10E94C3001092CB
:1001C00000016BE480E00E94C300289A08951F920A
:1001D0000F920FB60F9211242F933F934F935F937B
:1001E0006F937F938F939F93AF93BF93EF93FF93FF
:1001F00080910001882389F029988FEF0E949A004E
:10020000299A28986BE480E00E94C300289A1092F3
:10021000000160E387E00E94C300FF91EF91BF916E
:10022000AF919F918F917F916F915F914F913F918E
:100230002F910F900FBE0F901F901895CF93DF93C3
:10024000EC01299881E60E949A0040E1BE01CE01AE
:100250000E947C00299A60E487E0DF91CF910C94A2
:10026000C3000F931F93CF93DF931F92CDB7DEB7D9
:100270008B0129988F7149830E949A004981B801A6
:10028000C8010E947C00299A0F90DF91CF911F91A5
:100290000F9108950F931F93CF93DF931F92CDB7C4
:1002A000DEB78B0129988F71806249830E949A0082
:1002B0004981642FC8010E948D00299A0F90DF9117
:1002C000CF911F910F910895289845E0BC018AE0D5
:1002D0000E944A01289A089545E0BC0180E10C94EF
:1002E0004A011F93CF93DF93EC01162F80910001F9
:1002F0008111FCCF289881E0809300016AE480E0BE
:100300000E94C300299881EE0E949A00299A299898
:1003100080EA0E949A00612FCE010E948D00299AE6
:10032000289ADF91CF911F910895CF93DF931F9269
:10033000CDB7DEB787E08AB90E94A0002FEF80E733
:1003400092E0215080409040E1F700C00000789496
:100350000E94D7001AEA198361E0CE0101960E943B
:080360007101F9CFF894FFCF01
:00000001FF
