:100000000C9434000C9446000C9446000C9446006A
:100010000C9446000C9480000C9446000C9446000E
:100020000C9446000C9446000C9446000C94460038
:100030000C9446000C9446000C9446000C94460028
:100040000C9446000C9446000C9446000C94460018
:100050000C9446000C9446000C9446000C94460008
:100060000C9446000C94460011241FBECFEFD8E03C
:10007000DEBFCDBF21E0A0E0B1E001C01D92A13004
:10008000B207E1F70E945D010C947E010C94000020
:1000900084B1836084B92898299A0C942E018091A8
:1000A0000001811107C029988FEF0E945701299AFA
:1000B0008074089580E00895CF93DF931F92CDB7A9
:1000C000DEB729988F71806269830E945701698128
:1000D000862F0E945701299A0F90DF91CF910895A2
:1000E00062E085E00E945C0060E181E10E945C00CA
:1000F000109200016BE480E00E945C00289A089551
:100100001F920F920FB60F9211242F933F934F938C
:100110005F936F937F938F939F93AF93BF93EF936F
:10012000FF9380910001882389F029988FEF0E9426
:100130005701299A28986BE480E00E945C00289A75
:100140001092000160E387E00E945C00FF91EF9154
:10015000BF91AF919F918F917F916F915F914F91DF
:100160003F912F910F900FBE0F901F901895CF9336
:10017000DF93EC01299881E60E94570140E1BE011E
:10018000CE010E943901299A60E487E0DF91CF9186
:100190000C945C000F931F93CF93DF931F92CDB706
:1001A000DEB78B0129988F7149830E9457014981DD
:1001B000B801C8010E943901299A0F90DF91CF91AF
:1001C0001F910F9108950F931F93CF93DF931F9269
:1001D000CDB7DEB78B0129988F71806249830E9469
:1001E00057014981642FC8010E944A01299A0F9042
:1001F000DF91CF911F910F910895289845E0BC01A0
:100200008AE00E94E300289A089545E0BC0180E15D
:100210000C94E3001F93CF93DF93EC01162F809192
:1002200000018111FCCF289881E0809300016AE4ED
:1002300080E00E945C00299881EE0E945701299A73
:10024000299880EA0E945701612FCE010E944A013D
:10025000299A289ADF91CF911F91089584B1837CC8
:1002600084B984B18C6284B981E58CBD81E08DBD97
:100270000895262FFB013E2F321B341750F4DC016A
:100280003D91CD013EBD0DB407FEFDCF3EB531938E
:10029000F2CF0895282FFC018E2F821B861730F491
:1002A00081918EBD0DB407FEFDCFF6CF08958EBDB2
:1002B0000DB407FEFDCF8EB50895CF93DF931F9247
:1002C000CDB7DEB78AB183688AB98BB181688BB943
:1002D0000E942E010E94480083ED90E30197F1F700
:1002E00000C0000078940E947000CE0101960E9428
:1002F000B70089818A3AC9F7599AF7CFF894FFCFA6
:00000001FF
