:100000000C9434000C9446000C9446000C948F0021
:100010000C9446000C9446000C9446000C94460048
:100020000C9446000C9446000C9446000C94460038
:100030000C9446000C9446000C9446000C94460028
:100040000C9446000C9446000C9446000C94460018
:100050000C9446000C9446000C9446000C94460008
:100060000C9446000C94460011241FBECFEFD8E03C
:10007000DEBFCDBF21E0A0E0B1E001C01D92A13004
:10008000B207E1F70E946C010C948D010C94000002
:1000900084B1836084B92898299A2698E8E6F0E02C
:1000A000808181608083EBE6F0E0808180648083E2
:1000B0000C943D018BB194E089278BB980910001AC
:1000C000811107C029988FEF0E946601299A8074D8
:1000D000089580E00895CF93DF931F92CDB7DEB7E8
:1000E00029988F71806269830E9466016981862FD9
:1000F0000E946601299A0F90DF91CF91089562E0E6
:1001000085E00E946B0060E181E10E946B0010922B
:1001100000016BE480E00E946B00289A08951F9212
:100120000F920FB60F9211242F933F934F935F932B
:100130006F937F938F939F93AF93BF93EF93FF93AF
:1001400080910001882389F029988FEF0E94660131
:10015000299A28986BE480E00E946B00289A1092FC
:10016000000160E387E00E946B00FF91EF91BF9177
:10017000AF919F918F917F916F915F914F913F913F
:100180002F910F900FBE0F901F901895CF93DF9374
:10019000EC01299881E60E94660140E1BE01CE0192
:1001A0000E944801299A60E487E0DF91CF910C9486
:1001B0006B000F931F93CF93DF931F92CDB7DEB7E2
:1001C0008B0129988F7149830E9466014981B8018A
:1001D000C8010E944801299A0F90DF91CF911F9189
:1001E0000F9108950F931F93CF93DF931F92CDB775
:1001F000DEB78B0129988F71806249830E94660166
:100200004981642FC8010E945901299A0F90DF91FA
:10021000CF911F910F910895289845E0BC018AE085
:100220000E94F200289A089545E0BC0180E10C94F8
:10023000F2001F93CF93DF93EC01162F8091000102
:100240008111FCCF289881E0809300016AE480E06E
:100250000E946B00299881EE0E946601299A2998D4
:1002600080EA0E946601612FCE010E945901299AFD
:10027000289ADF91CF911F91089584B1837C84B92E
:1002800084B18C6284B981E58CBD81E08DBD089517
:10029000262FFB013E2F321B341750F4DC013D9119
:1002A000CD013EBD0DB407FEFDCF3EB53193F2CF7B
:1002B0000895282FFC018E2F821B861730F4819120
:1002C0008EBD0DB407FEFDCFF6CF08958EBD0DB4E3
:1002D00007FEFDCF8EB50895CF93DF931F92CDB764
:1002E000DEB7519A0E9448002FE788E391E0215041
:1002F00080409040E1F700C0000078940E947F00A9
:100300000E945A00882321F0CE0101960E94C60067
:0E03100089818A3AA9F7599AF3CFF894FFCF62
:00000001FF
