:100000000C9434000C943E000C943E000C943E0082
:100010000C943E000C943E000C943E000C943E0068
:100020000C943E000C943E000C943E000C943E0058
:100030000C943E000C943E000C943E000C943E0048
:100040000C943E000C943E000C943E000C943E0038
:100050000C943E000C943E000C943E000C943E0028
:100060000C943E000C943E0011241FBECFEFD8E04C
:10007000DEBFCDBF0E946D010C9481010C94000085
:1000800018B817B880917C0080937C0080917C0028
:10009000806280937C0080917A00846C80937A00E7
:1000A00080917A0086FDFCCF0895805F80937C006C
:1000B00080917A00806480937A0080917A0086FD36
:1000C000FCCF809178002091790090E06111922B13
:1000D00008958CE284B981E58CBD2A9A08958EBD7D
:1000E0000DB407FEFDCF8EB5089580E184B980E49C
:1000F0008CBD08950DB407FEFDCF8EB508950F9306
:100100001F93CF93DF93EC01888101E010E001C0E1
:10011000000F6A95EAF7102F10958123888380E2FB
:100120000E946F008EE70E946F008881802B888379
:1001300088818123888383E20E946F0083E00E948C
:100140006F008881802B888388818123888384E263
:100150000E946F008FE00E946F008881802B88834F
:1001600088818123888385E20E946F0086E40E9453
:100170006F008881802B8883DF91CF911F910F9131
:1001800008950F931F93CF93DF93EC01888101E0D3
:1001900010E001C0000F6A95EAF7102F1095812337
:1001A000888380E20E946F008FE70E946F00888141
:1001B000802B888388818123888383E20E946F005B
:1001C00083E00E946F008881802B8883888181234F
:1001D000888384E20E946F008FE00E946F00888114
:1001E000802B888388818123888385E20E946F0029
:1001F00086E40E946F008881802B8883DF91CF91F5
:100200001F910F9108958F929F92BF92CF92DF928C
:10021000EF92FF920F931F93CF93DF931F92CDB76F
:10022000DEB7B82E4B017901F9018081CC24C3944B
:10023000D12C960102C0220F331F0A95E2F78901E3
:10024000922F90959823908380EA49830E946F00B3
:100250008B2D0E946F00F7018081802B8083F40139
:1002600080814981042E01C0CC0C0A94EAF78C29C4
:100270008083F6E0FA95F1F700C0F4018081C09424
:10028000C822C0820F90DF91CF911F910F91FF90F4
:10029000EF90DF90CF90BF909F908F9008950F9335
:1002A0001F93CF93DF93EC01988101E010E001C030
:1002B000000F6A95EAF7802F80958923888381E66D
:1002C0000E946F008FEF0E946F009881902B98839F
:1002D000DF91CF911F910F9108950E9440000E94DD
:1002E000690062E085E290E00E947F00579A02E098
:1002F00025E230E040E06BE270E08FEF0E94030106
:06030000F6CFF894FFCFD8
:00000001FF
