:100000000C9434000C943E000C943E000C943E0082
:100010000C943E000C943E000C943E000C943E0068
:100020000C943E000C943E000C943E000C943E0058
:100030000C943E000C943E000C943E000C943E0048
:100040000C943E000C943E000C943E000C943E0038
:100050000C943E000C943E000C943E000C943E0028
:100060000C943E000C943E0011241FBECFEFD8E04C
:10007000DEBFCDBF0E9440000C9469000C940000CC
:100080008FEF8AB987B989E08BB988B92CE093E002
:100090002BB928B9E3E2F4EF3197F1F700C0000083
:1000A0008BB988B9E3ECF9E03197F1F700C00000B3
:1000B0009BB998B9E3E2F4EF3197F1F700C0000083
:1000C0008BB988B9E3ECF9E03197F1F700C0000093
:0600D000DFCFF894FFCF22
:00000001FF
