:100000000EC015C014C013C012C011C010C00FC064
:100010000EC00DC00CC00BC00AC009C008C011241E
:100020001FBECFE5D1E0DEBFCDBF02D030C0E8CFEC
:100030009FEF97BB80E886BD16BC8AB583608ABDFA
:100040008AB5806A8ABD83B7816083BF80B78161CA
:1000500080BF8CB580658CBD9DBD80E899BD9BBD82
:1000600098BD2FEF30E742E0215030404040E1F7AB
:1000700000C0000089BD8BBD88BD2FEF30E742E096
:10008000215030404040E1F700C00000E7CFF89435
:02009000FFCFA0
:00000001FF
