:100000000C9434000C9446000C9446000C9446006A
:100010000C9446000C9446000C9446000C94460048
:100020000C9446000C9446000C9446000C94460038
:100030000C9446000C9446000C9446000C94460028
:100040000C9448000C9446000C9446000C94460016
:100050000C9446000C9446000C9446000C94460008
:100060000C9446000C94460011241FBECFEFD8E03C
:10007000DEBFCDBF21E0A0E0B1E001C01D92A13202
:10008000B207E1F70E94BF000C9491040C940000A9
:100090001F920F920FB60F9211248F93309B04C0C2
:1000A00081E08093200102C010922001319B04C0A6
:1000B00081E080931F0102C010921F018F910F9069
:1000C0000FBE0F901F901895882349F1813051F190
:1000D000823059F1833061F1843069F1853071F1FA
:1000E000863079F1873081F1883089F1893091F15A
:1000F0008A3099F18B30A1F18C30A9F18D30B1F1BA
:100100008E30B9F18F30C1F121E030E0803111F053
:1001100020E030E088279927821B930B089580E028
:1001200090E0089581E090E0089583E090E00895E4
:1001300087E090E008958FE090E008958FE190E0EF
:1001400008958FE390E008958FE790E008958FEF92
:1001500090E008958FEF91E008958FEF93E0089578
:100160008FEF97E008958FEF9FE008958FEF9FE165
:1001700008958FEF9FE308958FEF9FE70895CF9342
:10018000DF9300D000D0CDB7DEB783ED90E30197C9
:10019000F1F700C000009FEF9AB987B1806387B97B
:1001A00094B90E942B020E94340280ED0E9440020A
:1001B00080E00E94400280E00E9440020E943402DF
:1001C00080ED0E94400287E00E94400283E00E948E
:1001D00040020E943C0284B584BD85B5836085BD24
:1001E00080916E00816080936E007894F8940E94F4
:1001F000340280ED0E94400281E00E9440020E9491
:10020000340281ED0E9440020E944A0280931E0146
:100210000E94540280931D010E943C0278946091D8
:100220001E01262F2F7020931C01607770E084E060
:10023000759567958A95E1F760931B0180911D0183
:10024000482F4F7040931A01807390E034E09595E9
:1002500087953A95E1F780931901EAE06E9F200DAA
:100260001124622F20931801142FFAE08F9F100D94
:1002700011241093170170E080E090E00E94570372
:1002800020E030E040E752E40E94C3029B01AC0151
:1002900060931301709314018093150190931601DC
:1002A000612F70E080E090E029833A834B835C8388
:1002B0000E94570329813A814B815C810E945F0231
:1002C00060930F01709310018093110190931201BC
:1002D00020E030E040EC51E40E94C30260930B0147
:1002E00070930C0180930D0190930E0120E030E09B
:1002F00040E851E40E94E5030E944804609307012E
:10030000709308018093090190930A010E942B03C6
:10031000862F609306010E946400809304019093ED
:10032000050185B99BB980912001882351F0809106
:100330000301811106C081E08093020180930301D3
:1003400009C080912001811105C0809103018111B4
:100350001092030180911F01882351F080910101C7
:10036000811106C081E0809300018093010109C0E2
:1003700080911F01811105C08091010181111092AE
:10038000010180910201882391F180911A018F5F10
:1003900080931A01843039F480911901823071F40C
:1003A0001092190109C08A3049F4809119018230F4
:1003B00028F48F5F8093190110921A01F8940E941B
:1003C000340280ED0E94400282E00E94400280914F
:1003D000190120E1829FC001112490911A01892BFB
:1003E0000E9440020E943C02789410920201809187
:1003F0000001882309F4FACE80911C018F5F80935D
:100400001C018A3071F480911B01853019F410921F
:100410001B0105C0863028F48F5F80931B0110926A
:100420001C01F8940E94340280ED0E94400281E099
:100430000E94400280911B0130E1839FC001112482
:1004400090911C01892B0E9440020E943C027894EA
:1004500010920001CBCE1092B9008CE08093B800CE
:1004600084E08093BC00089584EA8093BC0080916E
:10047000BC0087FFFCCF089584E98093BC000895F9
:100480008093BB0084E88093BC008091BC0087FF10
:10049000FCCF089584EC8093BC008091BC0087FF62
:1004A000FCCF8091BB00089584E88093BC008091CC
:1004B000BC0087FFFCCF8091BB0008955058BB273C
:1004C000AA270ED048C139D130F03ED120F031F406
:1004D0009F3F11F41EF42EC10EF4E095E7FB24C1FA
:1004E000E92F4AD180F3BA1762077307840795078B
:1004F00018F071F49EF562C10EF4E0950B2EBA2F40
:10050000A02D0B01B90190010C01CA01A001112419
:10051000FF27591B99F0593F50F4503E68F11A16C5
:10052000F040A22F232F342F4427585FF3CF469556
:1005300037952795A795F0405395C9F77EF41F1678
:10054000BA0B620B730B840BBAF09150A1F0FF0F42
:10055000BB1F661F771F881FC2F70EC0BA0F621F2E
:10056000731F841F48F4879577956795B795F7951E
:100570009E3F08F0B3CF9395880F08F09927EE0FB0
:100580009795879508950CD0E6C0DED040F0D5D081
:1005900030F021F45F3F19F0C7C0511110C1CAC03B
:1005A000EBD098F39923C9F35523B1F3951B550B61
:1005B000BB27AA2762177307840738F09F5F5F4F36
:1005C000220F331F441FAA1FA9F333D00E2E3AF077
:1005D000E0E830D091505040E695001CCAF729D091
:1005E000FE2F27D0660F771F881FBB1F26173707E0
:1005F0004807AB07B0E809F0BB0B802DBF01FF2710
:1006000093585F4F2AF09E3F510568F08DC0D7C0C8
:100610005F3FECF3983EDCF3869577956795B79549
:10062000F7959F5FC9F7880F911D9695879597F964
:100630000895E1E0660F771F881FBB1F62177307DD
:100640008407BA0720F0621B730B840BBA0BEE1FF2
:1006500088F7E095089598D088F09F5790F0B92FCB
:100660009927B751A0F0D1F0660F771F881F991F07
:100670001AF0BA95C9F712C0B13081F09FD0B1E03D
:1006800008959CC0672F782F8827B85F39F0B93F4D
:10069000CCF3869577956795B395D9F73EF4909509
:1006A0008095709561957F4F8F4F9F4F0895E89487
:1006B00009C097FB3EF490958095709561957F4FAA
:1006C0008F4F9F4F9923A9F0F92F96E9BB27939558
:1006D000F695879577956795B795F111F8CFFAF468
:1006E000BB0F11F460FF1BC06F5F7F4F8F4F9F4F99
:1006F00016C0882311F096E911C0772321F09EE8F7
:10070000872F762F05C0662371F096E8862F70E05C
:1007100060E02AF09A95660F771F881FDAF7880F36
:100720009695879597F9089597F99F6780E870E007
:1007300060E008959FEF80EC089500240A94161657
:10074000170618060906089500240A9412161306BF
:10075000140605060895092E0394000C11F488234D
:1007600052F0BB0F40F4BF2B11F460FF04C06F5F69
:100770007F4F8F4F9F4F089557FD9058440F551F3F
:1007800059F05F3F71F04795880F97FB991F61F013
:100790009F3F79F087950895121613061406551F8A
:1007A000F2CF4695F1DF08C0161617061806991FF6
:1007B000F1CF86957105610508940895E894BB27EB
:1007C00066277727CB0197F908950BD0C4CFB5DF03
:1007D00028F0BADF18F0952309F0A6CFABCF11248B
:1007E000EECFCADFA0F3959FD1F3950F50E0551FD0
:1007F000629FF001729FBB27F00DB11D639FAA2776
:10080000F00DB11DAA1F649F6627B00DA11D661FC4
:10081000829F2227B00DA11D621F739FB00DA11DE5
:10082000621F839FA00D611D221F749F3327A00D9F
:10083000611D231F849F600D211D822F762F6A2F3B
:1008400011249F5750408AF0E1F088234AF0EE0FC0
:10085000FF1FBB1F661F771F881F91505040A9F7CD
:100860009E3F510570F060CFAACF5F3FECF3983EFA
:10087000DCF3869577956795B795F795E7959F5F34
:10088000C1F7FE2B880F911D9695879597F90895CE
:100890007BDFE0F09E37D8F09639B8F49E3848F404
:1008A000672F782F8827985FF9CF8695779567957A
:1008B00093959539D0F3B62FB1706B0F711D811DD3
:1008C00020F4879577956795939502C01CC077CFE4
:1008D000882371F4772321F09850872B762F07C057
:1008E000662311F499270DC09051862B70E060E0CB
:1008F0002AF09A95660F771F881FDAF7880F96956A
:10090000879597F908959F3F31F0915020F487958E
:1009100077956795B795880F911D9695879597F967
:060920000895F894FFCFDA
:00000001FF
