:100000000C9434000C943E000C943E000C943E0082
:100010000C943E000C943E000C943E000C943E0068
:100020000C943E000C943E000C943E000C943E0058
:100030000C943E000C943E000C943E000C943E0048
:100040000C943E000C943E000C943E000C943E0038
:100050000C943E000C943E000C943E000C943E0028
:100060000C943E000C943E0011241FBECFEFD8E04C
:10007000DEBFCDBF0E945C010C9473010C940000A4
:100080000F931F93CF93DF93EC01888101E010E081
:1000900001C0000F6A95EAF7102F1095812388831D
:1000A00080E20E944C018EE70E944C018881802BE7
:1000B000888388818123888383E20E944C0183E0C6
:1000C0000E944C018881802B8883888181238883CA
:1000D00084E20E944C018FE00E944C018881802BB9
:1000E000888388818123888385E20E944C0186E48D
:1000F0000E944C018881802B88838881812388839A
:100100008BE20E944C0181E00E944C018881802B8F
:100110008883DF91CF911F910F9108950F931F93C3
:10012000CF93DF93EC01888101E010E001C0000F64
:100130006A95EAF7102F10958123888380E20E9448
:100140004C018FE70E944C018881802B8883888135
:100150008123888383E20E944C0183E00E944C014A
:100160008881802B888388818123888384E20E9410
:100170004C018FE00E944C018881802B888388810C
:100180008123888385E20E944C0186E40E944C0111
:100190008881802B88838881812388838BE20E94D9
:1001A0004C0181E00E944C018881802B8883DF9183
:1001B000CF911F910F9108958F929F92BF92CF92EE
:1001C000DF92EF92FF920F931F93CF93DF931F92D3
:1001D000CDB7DEB7B82E4B017901F9018081CC246F
:1001E000C394D12C960102C0220F331F0A95E2F767
:1001F0008901922F90959823908380EA49830E94E9
:100200004C018B2D0E944C01F7018081802B808353
:10021000F40180814981042E01C0CC0C0A94EAF7D4
:100220008C298083F6E0FA95F1F700C0F401808113
:10023000C094C822C0820F90DF91CF911F910F917F
:10024000FF90EF90DF90CF90BF909F908F90089598
:100250000F931F93CF93DF93EC01988101E010E09F
:1002600001C0000F6A95EAF7802F80958923888363
:1002700081E60E944C018FEF0E944C019881902BE7
:100280009883DF91CF911F910F9108958CE284B9EB
:1002900081E58CBD2A9A08958EBD0DB407FEFDCF71
:1002A0008EB5089580E184B980E48CBD08950DB4C5
:1002B00007FEFDCF8EB508950E94460162E085E2FB
:1002C00090E00E948E008AB181688AB98BB1816802
:1002D0008BB9589862E085E290E00E942801589A14
:0A02E0000E944C01F6CFF894FFCF06
:00000001FF
