:100000000C945F000C9469000C9469000C946900D6
:100010000C9469000C9469000C9469000C946900BC
:100020000C9469000C9469000C9469000C946900AC
:100030000C9469000C9469000C9469000C9469009C
:100040000C9469000C9469000C9469000C9469008C
:100050000C9469000C9469000C9469000C9469007C
:100060000C9469000C946900084AD73B3BCE016EA2
:1000700084BCBFFDC12F3D6C74319ABD56833DDAFF
:100080003D00C77F11BED9E4BB4C3E916BAAAABE0E
:10009000000000803F072C7AA5BA6CC590DA3B932C
:1000A00065FC8BBC53F810FD3C5692834DBD879D7B
:1000B0003AB63DCBC9BF5BBE73DA0FC93F0011240E
:1000C0001FBECFEFD8E0DEBFCDBF0E9440020C9430
:1000D00056060C9400004F925F926F927F928F921F
:1000E0009F92AF92BF92CF92DF92EF92FF920F93C7
:1000F0001F93CF93DF9300D000D0CDB7DEB72B0195
:100100003C0147015801C801B70129833A834B8359
:100110005C830E9423066B017C01C301B2010E9433
:1001200023062B013C0129813A814B815C81CA0164
:10013000B9010E9423069B01AC01C301B2010E94D8
:100140002F030E94E50520E030E040E251E40E94E8
:100150002E030E9423069B01AC01C701B6010E9439
:100160002F030E94E5056B017C019B01AC01C501D9
:10017000B4010E94F5030E9420034B015C0160E082
:1001800070E080E291E40E9423069B01AC010E9492
:100190002E032B013C01C701B6010E9423069B01DF
:1001A000AC01C301B2010E942F030E9420032B0166
:1001B0003C0120E030E040EA51E4C701B6010E9472
:1001C0005E059B01AC01C301B2010E94F5039B01D6
:1001D000AC01C501B4010E942F032BED3FE049ECB7
:1001E0005FE30E942E030F900F900F900F90DF910E
:1001F000CF911F910F91FF90EF90DF90CF90BF9024
:10020000AF909F908F907F906F905F904F900895E8
:100210008F929F92AF92BF92CF92DF92EF92FF9216
:100220000F931F93CF93DF9300D000D0CDB7DEB7ED
:100230004B015C01C801B70129833A834B835C837E
:100240000E9423066B017C01C501B4010E942306B4
:100250004B015C0129813A814B815C81CA01B90162
:100260000E9423069B01AC01C501B4010E942F032B
:100270000E94E50520E030E040E251E40E942E03B8
:100280000E9423069B01AC01C701B6010E942F0307
:100290000E94E5054B015C0160E070E080E291E4C2
:1002A0000E9423066B017C01C501B4010E94230654
:1002B0004B015C01A7019601C701B6010E942F0303
:1002C000A50194010E942F030E94200320E030E04A
:1002D00048E453E40E94F5039B01AC0160ED7FE02C
:1002E00089E490E40E942E030F900F900F900F90DE
:1002F000DF91CF911F910F91FF90EF90DF90CF9002
:10030000BF90AF909F908F90089520E030E044EB35
:1003100052E40E94F5030E945D0480E090E00E9498
:10032000890420E030E040E05FE30E945E050E9427
:100330005D0480E090E00E94890420E030E040EC21
:100340005FE30E942F030E945D0480E090E00E9422
:10035000890420E030E040EA51E40E94F5030E9465
:100360005D04CB0108952F923F924F925F926F925E
:100370007F928F929F92AF92BF92CF92DF92EF9235
:10038000FF920F931F93CF93DF9300D000D000D044
:10039000CDB7DEB79E838D836B01212C312CAD81CF
:1003A000BE8114968D919D910D90BC91A02D898355
:1003B0009A83AB83BC83ED81FE81208131814281B0
:1003C0005381BC01CD010E94A203D6016D937D93A0
:1003D0008D939C931397ED81FE81408451846284B8
:1003E000738480809180A280B3808301720129810F
:1003F0003A814B815C81C501B4010E946B00D6013A
:1004000014966D937D938D939C931797ED81FE8148
:100410002481358146815781C501B4010E940801BC
:10042000D60118966D937D938D939C931B97BFEF88
:100430002B1A3B0AED81FE813C96FE83ED83FCE0A6
:10044000CF0ED11C84E02816310409F0A8CF2696DF
:100450000FB6F894DEBF0FBECDBFDF91CF911F91D5
:100460000F91FF90EF90DF90CF90BF90AF909F9053
:100470008F907F906F905F904F903F902F90089556
:10048000CF93DF93CDB7DEB7C056D1090FB6F8943E
:10049000DEBF0FBECDBF0E94B70220E3CE01C196E2
:1004A000FC01322F11923A95E9F78E010F5F1F4F31
:1004B000F80111922A95E9F740E050E060E271E41A
:1004C00049AB5AAB6BAB7CAB4DAB5EAB6FAB78AFB4
:1004D00021964CAF5DAF6EAF7FAF219725964CAFA5
:1004E0005DAF6EAF7FAF25972D964CAF5DAF6EAF12
:1004F0007FAF2D9761964CAF5DAF6EAF7FAF6197C9
:10050000B8010E94B301F12CF801608171818281F0
:1005100093810E948501BC018F2D0E94E502F801A4
:1005200064817581868197810E948501BC01F39465
:100530008F2D0E94E502045F1F4FF3E0FF12E4CF0E
:10054000FFCF84EA8093BC008091BC0087FFFCCF82
:10055000089584E98093BC0008958093BB0084E8EB
:100560008093BC008091BC0087FFFCCF08950E945F
:10057000A10280E80E94AD0280E00E94AD0280E10D
:100580000E94AD020E94A10280E80E94AD0281E0BB
:100590000E94AD028AE00E94AD020E94A10280E8A2
:1005A0000E94AD028EEF0E94AD0289E70E94AD026B
:1005B0000E94A10280E80E94AD0280E00E94AD028C
:1005C00080E00E94AD020C94A902CF92DF92EF92DC
:1005D000FF921F93CF93DF93182F862F60E070E078
:1005E000782F7295707F80E090E00E9489040E94CD
:1005F000C1050E945D046B017C01EB010E94A10218
:1006000080E80E94AD02812F880F880F885F0E94CA
:10061000AD0281E0CD2B09F480E00E94AD02CD2C2B
:10062000DD2481E0CD2809F480E00E94AD02DF9155
:10063000CF911F91FF90EF90DF90CF900C94A90283
:100640009F939F77A3D10F9000203AF49058A2EA8D
:100650002AED3FE049E450E413D0EFC15058BB27E6
:10066000AA270ED0EAC1DBD130F0E0D120F031F47E
:100670009F3F11F41EF4ABC10EF4E095E7FBA1C15E
:10068000E92FECD180F3BA17620773078407950747
:1006900018F071F49EF504C20EF4E0950B2EBA2FFB
:1006A000A02D0B01B90190010C01CA01A001112478
:1006B000FF27591B99F0593F50F4503E68F11A1624
:1006C000F040A22F232F342F4427585FF3CF4695B5
:1006D00037952795A795F0405395C9F77EF41F16D7
:1006E000BA0B620B730B840BBAF09150A1F0FF0FA1
:1006F000BB1F661F771F881FC2F70EC0BA0F621F8D
:10070000731F841F48F4879577956795B795F7957C
:100710009E3F08F0B3CF9395880F08F09927EE0F0E
:100720009795879508957BD158F080E891E009F47A
:100730009EEF7CD128F040E851E059F45EEF09C00B
:1007400046C1AEC1E92FE07889D168F3092E052AA8
:10075000C1F3261737074807590738F00E2E07F858
:10076000E02569F0E025E0640AC0EF6307F8009433
:1007700007FADB01B9019D01DC01CA01AD01EF936C
:1007800043D05BD10AD05F91552331F02BED3FE090
:1007900049E450FD49EC63CF0895DF93DD27B92F7D
:1007A000BF7740E85FE31616170648075B0710F4AB
:1007B000D92F7DD19F938F937F936F9344D2E8E697
:1007C000F0E008D13AD12F913F914F915F9182D1C2
:1007D000DD2349F09058A2EA2AED3FE049EC5FE3BF
:1007E000D0785D274DDFDF9128C10CD026C11ED106
:1007F00040F015D130F021F45F3F19F0E2C0511103
:1008000050C1E5C02BD198F39923C9F35523B1F317
:10081000951B550BBB27AA2762177307840738F06F
:100820009F5F5F4F220F331F441FAA1FA9F333D0CE
:100830000E2E3AF0E0E830D091505040E695001C82
:10084000CAF729D0FE2F27D0660F771F881FBB1F3E
:10085000261737074807AB07B0E809F0BB0B802D18
:10086000BF01FF2793585F4F2AF09E3F510568F064
:10087000A8C017C15F3FECF3983EDCF386957795EF
:100880006795B795F7959F5FC9F7880F911D969566
:10089000879597F90895E1E0660F771F881FBB1FC2
:1008A000621773078407BA0720F0621B730B840B6F
:1008B000BA0BEE1F88F7E0950895D8D088F09F57BF
:1008C00090F0B92F9927B751A0F0D1F0660F771F9C
:1008D000881F991F1AF0BA95C9F712C0B13081F07C
:1008E000DFD0B1E00895DCC0672F782F8827B85F8C
:1008F00039F0B93FCCF3869577956795B395D9F7DD
:100900003EF490958095709561957F4F8F4F9F4FE6
:100910000895E89409C097FB3EF4909580957095F2
:1009200061957F4F8F4F9F4F9923A9F0F92F96E93B
:10093000BB279395F695879577956795B795F111B0
:10094000F8CFFAF4BB0F11F460FF1BC06F5F7F4F4D
:100950008F4F9F4F16C0882311F096E911C077235F
:1009600021F09EE8872F762F05C0662371F096E868
:10097000862F70E060E02AF09A95660F771F881F37
:10098000DAF7880F9695879597F90895DF93CF93B7
:100990001F930F938B01EC01E5E9F0E01BD04DD0E4
:1009A0009801AE018B01EC0160E070E080E89FE30C
:1009B00055DE0BD19801AE010F911F91CF91DF91C0
:1009C00089C097F99F6780E870E060E008959FEF25
:1009D00080EC0895DF93CF931F930F93FF92EF92D4
:1009E000DF927B018C01689405C0DA2EEF0172D092
:1009F000FE01E894A5912591359145915591AEF36D
:100A0000EF013EDEFE019701A801DA9479F7DF904D
:100A1000EF90FF900F911F91CF91DF9108950024E7
:100A20000A941616170618060906089500240A9453
:100A300012161306140605060895092E0394000CD9
:100A400011F4882352F0BB0F40F4BF2B11F460FF68
:100A500004C06F5F7F4F8F4F9F4F089557FD905891
:100A6000440F551F59F05F3F71F04795880F97FB72
:100A7000991F61F09F3F79F087950895121613062C
:100A80001406551FF2CF4695F1DF08C0161617065B
:100A90001806991FF1CF8695710561050894089590
:100AA000E894BB2766277727CB0197F908959B0128
:100AB000AC0160E070E080E89FE397CE0BD0BDCF43
:100AC000AEDF28F0B3DF18F0952309F07ACF7FCF9F
:100AD0001124E7CFC3DFA0F3959FD1F3950F50E02A
:100AE000551F629FF001729FBB27F00DB11D639FE0
:100AF000AA27F00DB11DAA1F649F6627B00DA11D86
:100B0000661F829F2227B00DA11D621F739FB00D2B
:100B1000A11D621F839FA00D611D221F749F33279B
:100B2000A00D611D231F849F600D211D822F762F34
:100B30006A2F11249F5750408AF0E1F088234AF031
:100B4000EE0FFF1FBB1F661F771F881F915050407D
:100B5000A9F79E3F510570F034CFA3CF5F3FECF370
:100B6000983EDCF3869577956795B795F795E79569
:100B70009F5FC1F7FE2B880F911D9695879597F97A
:100B8000089574DFE0F09E37D8F09639B8F49E38B7
:100B900048F4672F782F8827985FF9CF8695779547
:100BA000679593959539D0F3B62FB1706B0F711D82
:100BB000811D20F4879577956795939547C061C00F
:100BC00070CF11F40EF403CF5CC050DFD0F3992343
:100BD000D9F3CEF39F57550B87FF61D00024A0E6D1
:100BE00040EA900180585695979528F4805C660FEE
:100BF000771F881F20F026173707480730F4621B3D
:100C0000730B840B202931294A2BA695179407943E
:100C1000202531254A2758F7660F771F881F20F0B7
:100C200026173707480730F4620B730B840B200D2F
:100C3000311D411DA09581F7B901842F9158880F6E
:100C40009695879508959B01AC0138CF882371F460
:100C5000772321F09850872B762F07C0662311F455
:100C600099270DC09051862B70E060E02AF09A958C
:100C7000660F771F881FDAF7880F9695879597F983
:100C800008959F3F31F0915020F4879577956795AF
:100C9000B795880F911D9695879597F9089591506E
:100CA0005040660F771F881FD2F70895F894FFCF42
:00000001FF
