:100000000C9434000C943E000C943E000C943E0082
:100010000C943E000C943E000C943E000C943E0068
:100020000C943E000C943E000C943E000C943E0058
:100030000C943E000C943E000C943E000C943E0048
:100040000C943E000C943E000C943E000C943E0038
:100050000C943E000C943E000C943E000C943E0028
:100060000C943E000C943E0011241FBECFEFD8E04C
:10007000DEBFCDBF0E9440000C9487000C940000AE
:100080000E945900FFCF84EA8093BC008091BC009D
:1000900087FFFCCF089584E98093BC000895809386
:1000A000BB0084E88093BC008091BC0087FFFCCF3C
:1000B00008950E94430080E80E944F0080E00E9463
:1000C0004F0080E10E944F000E94430080E80E94A0
:1000D0004F0081E00E944F008AE00E944F000E9482
:1000E000430080E80E944F008EEF0E944F0089E796
:1000F0000E944F000E94430080E80E944F0080E071
:100100000E944F0080E00E944F000C944B00F89436
:02011000FFCF1F
:00000001FF
